{
  "_format": "hh-sol-artifact-1",
  "contractName": "Lottery",
  "sourceName": "contracts/Lottery.sol",
  "abi": [
    {
      "inputs": [],
      "name": "enter",
      "outputs": [],
      "stateMutability": "payable",
      "type": "function"
    },
    {
      "inputs": [],
      "name": "getOrganiser",
      "outputs": [
        {
          "internalType": "address",
          "name": "",
          "type": "address"
        }
      ],
      "stateMutability": "view",
      "type": "function"
    },
    {
      "inputs": [],
      "name": "getPlayers",
      "outputs": [
        {
          "internalType": "address payable[]",
          "name": "",
          "type": "address[]"
        }
      ],
      "stateMutability": "view",
      "type": "function"
    },
    {
      "inputs": [],
      "name": "getValue",
      "outputs": [
        {
          "internalType": "uint256",
          "name": "",
          "type": "uint256"
        }
      ],
      "stateMutability": "view",
      "type": "function"
    },
    {
      "inputs": [],
      "name": "lottery",
      "outputs": [],
      "stateMutability": "payable",
      "type": "function"
    },
    {
      "inputs": [],
      "name": "organiser",
      "outputs": [
        {
          "internalType": "address",
          "name": "",
          "type": "address"
        }
      ],
      "stateMutability": "view",
      "type": "function"
    },
    {
      "inputs": [],
      "name": "pickWinner",
      "outputs": [],
      "stateMutability": "payable",
      "type": "function"
    },
    {
      "inputs": [
        {
          "internalType": "uint256",
          "name": "",
          "type": "uint256"
        }
      ],
      "name": "players",
      "outputs": [
        {
          "internalType": "address payable",
          "name": "",
          "type": "address"
        }
      ],
      "stateMutability": "view",
      "type": "function"
    },
    {
      "inputs": [],
      "name": "randomize",
      "outputs": [
        {
          "internalType": "uint256",
          "name": "",
          "type": "uint256"
        }
      ],
      "stateMutability": "view",
      "type": "function"
    }
  ],
  "bytecode": "0x6080604052306000806101000a81548173ffffffffffffffffffffffffffffffffffffffff021916908373ffffffffffffffffffffffffffffffffffffffff16021790555034801561005057600080fd5b50610de7806100606000396000f3fe6080604052600436106100865760003560e01c80637e537486116100595780637e537486146101165780638b5b9ccc14610141578063ba13a5721461016c578063e97dcb6214610176578063f71d96cb1461018057610086565b80630b7055781461008b57806320965255146100b65780635d495aea146100e1578063699b328a146100eb575b600080fd5b34801561009757600080fd5b506100a06101bd565b6040516100ad9190610abf565b60405180910390f35b3480156100c257600080fd5b506100cb6101e6565b6040516100d89190610b99565b60405180910390f35b6100e96101ee565b005b3480156100f757600080fd5b5061010061042e565b60405161010d9190610b99565b60405180910390f35b34801561012257600080fd5b5061012b610469565b6040516101389190610abf565b60405180910390f35b34801561014d57600080fd5b5061015661048d565b6040516101639190610af5565b60405180910390f35b61017461051b565b005b61017e61055d565b005b34801561018c57600080fd5b506101a760048036038101906101a291906108cb565b6105d6565b6040516101b49190610ada565b60405180910390f35b60008060009054906101000a900473ffffffffffffffffffffffffffffffffffffffff16905090565b600047905090565b60008054906101000a900473ffffffffffffffffffffffffffffffffffffffff1673ffffffffffffffffffffffffffffffffffffffff163373ffffffffffffffffffffffffffffffffffffffff161461024657600080fd5b6102846040518060400160405280601281526020017f456e7465726564207069636b57696e6e65720000000000000000000000000000815250610615565b6000600190506103076040518060400160405280601281526020017f57696e6e696e6720616464726573732069730000000000000000000000000000815250600183815481106102d7576102d6610d06565b5b9060005260206000200160009054906101000a900473ffffffffffffffffffffffffffffffffffffffff166106ae565b6103466040518060400160405280601b81526020017f53656e6465722062616c616e636520697320257320746f6b656e7300000000008152504761074a565b6001818154811061035a57610359610d06565b5b9060005260206000200160009054906101000a900473ffffffffffffffffffffffffffffffffffffffff1673ffffffffffffffffffffffffffffffffffffffff166108fc479081150290604051600060405180830381858888f193505050501580156103ca573d6000803e3d6000fd5b50600067ffffffffffffffff8111156103e6576103e5610d35565b5b6040519080825280602002602001820160405280156104145781602001602082028036833780820191505090505b506001908051906020019061042a92919061080f565b5050565b6000804442600160405160200161044793929190610a86565b6040516020818303038152906040528051906020012090508060001c91505090565b60008054906101000a900473ffffffffffffffffffffffffffffffffffffffff1681565b6060600180548060200260200160405190810160405280929190818152602001828054801561051157602002820191906000526020600020905b8160009054906101000a900473ffffffffffffffffffffffffffffffffffffffff1673ffffffffffffffffffffffffffffffffffffffff16815260200190600101908083116104c7575b5050505050905090565b336000806101000a81548173ffffffffffffffffffffffffffffffffffffffff021916908373ffffffffffffffffffffffffffffffffffffffff160217905550565b670de0b6b3a7640000341461057157600080fd5b6001339080600181540180825580915050600190039060005260206000200160009091909190916101000a81548173ffffffffffffffffffffffffffffffffffffffff021916908373ffffffffffffffffffffffffffffffffffffffff160217905550565b600181815481106105e657600080fd5b906000526020600020016000915054906101000a900473ffffffffffffffffffffffffffffffffffffffff1681565b6106ab816040516024016106299190610b17565b6040516020818303038152906040527f41304fac000000000000000000000000000000000000000000000000000000007bffffffffffffffffffffffffffffffffffffffffffffffffffffffff19166020820180517bffffffffffffffffffffffffffffffffffffffffffffffffffffffff83818316178352505050506107e6565b50565b61074682826040516024016106c4929190610b39565b6040516020818303038152906040527f319af333000000000000000000000000000000000000000000000000000000007bffffffffffffffffffffffffffffffffffffffffffffffffffffffff19166020820180517bffffffffffffffffffffffffffffffffffffffffffffffffffffffff83818316178352505050506107e6565b5050565b6107e28282604051602401610760929190610b69565b6040516020818303038152906040527f9710a9d0000000000000000000000000000000000000000000000000000000007bffffffffffffffffffffffffffffffffffffffffffffffffffffffff19166020820180517bffffffffffffffffffffffffffffffffffffffffffffffffffffffff83818316178352505050506107e6565b5050565b60008151905060006a636f6e736f6c652e6c6f679050602083016000808483855afa5050505050565b828054828255906000526020600020908101928215610888579160200282015b828111156108875782518260006101000a81548173ffffffffffffffffffffffffffffffffffffffff021916908373ffffffffffffffffffffffffffffffffffffffff1602179055509160200191906001019061082f565b5b5090506108959190610899565b5090565b5b808211156108b257600081600090555060010161089a565b5090565b6000813590506108c581610d9a565b92915050565b6000602082840312156108e1576108e0610d77565b5b60006108ef848285016108b6565b91505092915050565b60006109048383610928565b60208301905092915050565b600061091c8383610946565b60208301905092915050565b61093181610c73565b82525050565b61094081610c73565b82525050565b61094f81610c73565b82525050565b61095e81610c61565b82525050565b600061096f82610bd9565b6109798185610c14565b935061098483610bb4565b8060005b838110156109b557815161099c88826108f8565b97506109a783610bfa565b925050600181019050610988565b5085935050505092915050565b60006109cd82610be4565b6109d78185610c25565b93506109e283610bc4565b8060005b83811015610a1a576109f782610d64565b610a018882610910565b9750610a0c83610c07565b9250506001810190506109e6565b5085935050505092915050565b6000610a3282610bef565b610a3c8185610c30565b9350610a4c818560208601610caf565b610a5581610d7c565b840191505092915050565b610a6981610ca5565b82525050565b610a80610a7b82610ca5565b610cfc565b82525050565b6000610a928286610a6f565b602082019150610aa28285610a6f565b602082019150610ab282846109c2565b9150819050949350505050565b6000602082019050610ad46000830184610955565b92915050565b6000602082019050610aef6000830184610937565b92915050565b60006020820190508181036000830152610b0f8184610964565b905092915050565b60006020820190508181036000830152610b318184610a27565b905092915050565b60006040820190508181036000830152610b538185610a27565b9050610b626020830184610955565b9392505050565b60006040820190508181036000830152610b838185610a27565b9050610b926020830184610a60565b9392505050565b6000602082019050610bae6000830184610a60565b92915050565b6000819050602082019050919050565b60008190508160005260206000209050919050565b600081519050919050565b600081549050919050565b600081519050919050565b6000602082019050919050565b6000600182019050919050565b600082825260208201905092915050565b600081905092915050565b600082825260208201905092915050565b600073ffffffffffffffffffffffffffffffffffffffff82169050919050565b6000610c6c82610c85565b9050919050565b6000610c7e82610c85565b9050919050565b600073ffffffffffffffffffffffffffffffffffffffff82169050919050565b6000819050919050565b60005b83811015610ccd578082015181840152602081019050610cb2565b83811115610cdc576000848401525b50505050565b6000610cf5610cf083610d8d565b610c41565b9050919050565b6000819050919050565b7f4e487b7100000000000000000000000000000000000000000000000000000000600052603260045260246000fd5b7f4e487b7100000000000000000000000000000000000000000000000000000000600052604160045260246000fd5b6000610d708254610ce2565b9050919050565b600080fd5b6000601f19601f8301169050919050565b60008160001c9050919050565b610da381610ca5565b8114610dae57600080fd5b5056fea2646970667358221220a6b5804dd2c6f010a55e631cac19540104369dd1b65605acb9701023cce90fe964736f6c63430008070033",
  "linkReferences": {},
  "deployedLinkReferences": {}
}