{
  "contractName": "Lottery",
  "abi": [
    {
      "inputs": [],
      "stateMutability": "nonpayable",
      "type": "constructor"
    },
    {
      "inputs": [],
      "name": "organiser",
      "outputs": [
        {
          "internalType": "address",
          "name": "",
          "type": "address"
        }
      ],
      "stateMutability": "view",
      "type": "function",
      "constant": true
    },
    {
      "inputs": [
        {
          "internalType": "uint256",
          "name": "",
          "type": "uint256"
        }
      ],
      "name": "players",
      "outputs": [
        {
          "internalType": "address payable",
          "name": "",
          "type": "address"
        }
      ],
      "stateMutability": "view",
      "type": "function",
      "constant": true
    },
    {
      "inputs": [],
      "name": "winner",
      "outputs": [
        {
          "internalType": "address",
          "name": "",
          "type": "address"
        }
      ],
      "stateMutability": "view",
      "type": "function",
      "constant": true
    },
    {
      "inputs": [],
      "name": "enter",
      "outputs": [],
      "stateMutability": "payable",
      "type": "function",
      "payable": true
    },
    {
      "inputs": [],
      "name": "getPlayers",
      "outputs": [
        {
          "internalType": "address payable[]",
          "name": "",
          "type": "address[]"
        }
      ],
      "stateMutability": "view",
      "type": "function",
      "constant": true
    },
    {
      "inputs": [],
      "name": "getValue",
      "outputs": [
        {
          "internalType": "uint256",
          "name": "",
          "type": "uint256"
        }
      ],
      "stateMutability": "view",
      "type": "function",
      "constant": true
    },
    {
      "inputs": [],
      "name": "getOrganiser",
      "outputs": [
        {
          "internalType": "address",
          "name": "",
          "type": "address"
        }
      ],
      "stateMutability": "view",
      "type": "function",
      "constant": true
    },
    {
      "inputs": [],
      "name": "randomize",
      "outputs": [
        {
          "internalType": "uint256",
          "name": "",
          "type": "uint256"
        }
      ],
      "stateMutability": "view",
      "type": "function",
      "constant": true
    },
    {
      "inputs": [],
      "name": "runLottery",
      "outputs": [
        {
          "internalType": "address",
          "name": "player",
          "type": "address"
        }
      ],
      "stateMutability": "payable",
      "type": "function",
      "payable": true
    },
    {
      "inputs": [],
      "name": "getWinner",
      "outputs": [
        {
          "internalType": "address",
          "name": "",
          "type": "address"
        }
      ],
      "stateMutability": "view",
      "type": "function",
      "constant": true
    }
  ],
  "bytecode": "0x608060405234801561001057600080fd5b50336000806101000a81548173ffffffffffffffffffffffffffffffffffffffff021916908373ffffffffffffffffffffffffffffffffffffffff160217905550610a62806100606000396000f3fe6080604052600436106100915760003560e01c80638b5b9ccc116100595780638b5b9ccc146101605780638e7ea5b21461018b578063dfbf53ae146101b6578063e97dcb62146101e1578063f71d96cb146101eb57610091565b80630b7055781461009657806320965255146100c15780635674a3ed146100ec578063699b328a1461010a5780637e53748614610135575b600080fd5b3480156100a257600080fd5b506100ab610228565b6040516100b891906107eb565b60405180910390f35b3480156100cd57600080fd5b506100d6610251565b6040516100e39190610843565b60405180910390f35b6100f4610259565b60405161010191906107eb565b60405180910390f35b34801561011657600080fd5b5061011f610426565b60405161012c9190610843565b60405180910390f35b34801561014157600080fd5b5061014a610461565b60405161015791906107eb565b60405180910390f35b34801561016c57600080fd5b50610175610485565b6040516101829190610821565b60405180910390f35b34801561019757600080fd5b506101a0610513565b6040516101ad91906107eb565b60405180910390f35b3480156101c257600080fd5b506101cb61053d565b6040516101d891906107eb565b60405180910390f35b6101e9610563565b005b3480156101f757600080fd5b50610212600480360381019061020d9190610630565b6105dc565b60405161021f9190610806565b60405180910390f35b60008060009054906101000a900473ffffffffffffffffffffffffffffffffffffffff16905090565b600047905090565b60008060009054906101000a900473ffffffffffffffffffffffffffffffffffffffff1673ffffffffffffffffffffffffffffffffffffffff163373ffffffffffffffffffffffffffffffffffffffff16146102b457600080fd5b600047116102c157600080fd5b60006002805490506102d1610426565b6102db9190610961565b9050600281815481106102f1576102f06109c1565b5b9060005260206000200160009054906101000a900473ffffffffffffffffffffffffffffffffffffffff1673ffffffffffffffffffffffffffffffffffffffff166108fc479081150290604051600060405180830381858888f19350505050158015610361573d6000803e3d6000fd5b5060028181548110610376576103756109c1565b5b9060005260206000200160009054906101000a900473ffffffffffffffffffffffffffffffffffffffff16600160006101000a81548173ffffffffffffffffffffffffffffffffffffffff021916908373ffffffffffffffffffffffffffffffffffffffff160217905550600281815481106103f5576103f46109c1565b5b9060005260206000200160009054906101000a900473ffffffffffffffffffffffffffffffffffffffff1691505090565b6000804442600260405160200161043f939291906107b2565b6040516020818303038152906040528051906020012090508060001c91505090565b60008054906101000a900473ffffffffffffffffffffffffffffffffffffffff1681565b6060600280548060200260200160405190810160405280929190818152602001828054801561050957602002820191906000526020600020905b8160009054906101000a900473ffffffffffffffffffffffffffffffffffffffff1673ffffffffffffffffffffffffffffffffffffffff16815260200190600101908083116104bf575b5050505050905090565b6000600160009054906101000a900473ffffffffffffffffffffffffffffffffffffffff16905090565b600160009054906101000a900473ffffffffffffffffffffffffffffffffffffffff1681565b670de0b6b3a7640000341461057757600080fd5b6002339080600181540180825580915050600190039060005260206000200160009091909190916101000a81548173ffffffffffffffffffffffffffffffffffffffff021916908373ffffffffffffffffffffffffffffffffffffffff160217905550565b600281815481106105ec57600080fd5b906000526020600020016000915054906101000a900473ffffffffffffffffffffffffffffffffffffffff1681565b60008135905061062a81610a15565b92915050565b60006020828403121561064657610645610a03565b5b60006106548482850161061b565b91505092915050565b6000610669838361068d565b60208301905092915050565b600061068183836106ab565b60208301905092915050565b61069681610901565b82525050565b6106a581610901565b82525050565b6106b481610901565b82525050565b6106c3816108ef565b82525050565b60006106d482610883565b6106de81856108b3565b93506106e98361085e565b8060005b8381101561071a578151610701888261065d565b975061070c83610899565b9250506001810190506106ed565b5085935050505092915050565b60006107328261088e565b61073c81856108c4565b93506107478361086e565b8060005b8381101561077f5761075c826109f0565b6107668882610675565b9750610771836108a6565b92505060018101905061074b565b5085935050505092915050565b61079581610933565b82525050565b6107ac6107a782610933565b610957565b82525050565b60006107be828661079b565b6020820191506107ce828561079b565b6020820191506107de8284610727565b9150819050949350505050565b600060208201905061080060008301846106ba565b92915050565b600060208201905061081b600083018461069c565b92915050565b6000602082019050818103600083015261083b81846106c9565b905092915050565b6000602082019050610858600083018461078c565b92915050565b6000819050602082019050919050565b60008190508160005260206000209050919050565b600081519050919050565b600081549050919050565b6000602082019050919050565b6000600182019050919050565b600082825260208201905092915050565b600081905092915050565b600073ffffffffffffffffffffffffffffffffffffffff82169050919050565b60006108fa82610913565b9050919050565b600061090c82610913565b9050919050565b600073ffffffffffffffffffffffffffffffffffffffff82169050919050565b6000819050919050565b600061095061094b83610a08565b6108cf565b9050919050565b6000819050919050565b600061096c82610933565b915061097783610933565b92508261098757610986610992565b5b828206905092915050565b7f4e487b7100000000000000000000000000000000000000000000000000000000600052601260045260246000fd5b7f4e487b7100000000000000000000000000000000000000000000000000000000600052603260045260246000fd5b60006109fc825461093d565b9050919050565b600080fd5b60008160001c9050919050565b610a1e81610933565b8114610a2957600080fd5b5056fea264697066735822122029c63df2400ce0a67bf4a8a266b418a650c6cd9b482c3fc5ce8553a14298893264736f6c63430008070033",
  "immutableReferences": {},
  "source": "pragma solidity ^0.8.7;\r\n//import \"hardhat/console.sol\";\r\n\r\n\r\ncontract Lottery {\r\n    address public organiser;\r\n    address public winner;\r\n    address payable [] public players;\r\n\r\n    //assign lottery organiser to contract creator\r\n    constructor() {\r\n        organiser = msg.sender;\r\n    }\r\n\r\n    //add player's address to the lottery pool\r\n    function enter() public payable {\r\n        require(msg.value == 1 ether);\r\n\r\n        players.push(payable(msg.sender));\r\n    }\r\n\r\n    //get list of players in the lottery\r\n    function getPlayers() public view returns (address payable [] memory) {\r\n        return players;\r\n    }\r\n\r\n    //get lottery value in eth\r\n    function getValue() public view returns(uint) {\r\n        return address(this).balance;\r\n    }    \r\n\r\n    //get organiser's address in the lottery\r\n    function getOrganiser() public view returns (address) {\r\n        return organiser;\r\n    }\r\n\r\n    //Modifier to check that the organiser is the one calling the method to pick winner\r\n    modifier organiserOnly() {\r\n        require(msg.sender == organiser);\r\n        _;\r\n    }\r\n\r\n    //Modifier to check that the organiser is the one calling the method to pick winner\r\n    modifier lotteryHasBalance() {\r\n        require(address(this).balance > 0);\r\n        _;\r\n    }    \r\n\r\n    //Method to generate pseudo random number which uses block timestamp\r\n    function randomize() public view returns(uint) {\r\n        //use keccak256 hashnpm\r\n        //hash block difficulty + timestamp + player list\r\n        bytes32 hash = keccak256(abi.encodePacked(block.difficulty, block.timestamp, players));\r\n\r\n        return uint(hash);\r\n    }\r\n\r\n\r\n    function runLottery() public payable organiserOnly lotteryHasBalance returns (address player) {\r\n        //get random winning index using modulo of number of players\r\n        uint winnerIndex = randomize() % players.length;\r\n\r\n        players[winnerIndex].transfer(address(this).balance);\r\n\r\n        winner = players[winnerIndex];\r\n\r\n        //zerolise player list\r\n       // players = new address payable [](0);\r\n\r\n        return players[winnerIndex];\r\n    }\r\n\r\n    function getWinner() public view returns (address) {\r\n    return winner;\r\n    }\r\n}",
  "sourcePath": "C:\\Users\\sagar\\git\\eth-lottery-react\\contracts\\Lottery.sol",
  "compiler": {
    "name": "solc",
    "version": "0.8.7+commit.e28d00a7.Emscripten.clang"
  },
  "schemaVersion": "3.4.3",
  "updatedAt": "2021-09-25T01:11:14.544Z",
  "networkType": "ethereum",
  "devdoc": {
    "kind": "dev",
    "methods": {},
    "version": 1
  },
  "userdoc": {
    "kind": "user",
    "methods": {},
    "version": 1
  }
}